:020000040800F2
:1000000038050020B1010008EF2500088D17000811
:10001000ED250008E5030008152900080000000090
:100020000000000000000000000000003927000868
:10003000E703000800000000F12500083B27000846
:10004000CB010008CB010008CB010008CB01000860
:10005000CB010008CB010008CB010008CB01000850
:10006000CB010008CB010008CB010008CB01000840
:10007000CB010008CB010008CB010008CB01000830
:10008000CB010008CB010008CB01000800000000F4
:10009000000000000000000000000000CB0100088C
:1000A000CB010008CB010008CB010008CB01000800
:1000B000CB010008CB010008CB0100089D17000808
:1000C00091170008CB010008CB010008CB01000804
:1000D000CB010008CB010008CB01000800000000A4
:1000E000CB010008CB010008CB0100080000000094
:1000F000000000000000000000000000CB0100082C
:1001000000000000CB010008CB010008CB01000873
:1001100000000000000000000000000000000000DF
:10012000CB010008CB010008CB010008CB0100087F
:10013000CB010008000000000000000000000000EB
:10014000000000000000000000000000CB010008DB
:10015000CB010008CB010008CB010008CB0100084F
:10016000CB010008CB0100080000000000000000E7
:10017000000000000000000000000000000000007F
:1001800000000000CB01000800000000000000009B
:10019000CB010008CB010008DFF810D000F07CF89C
:1001A0000048004755290008AFF3008038050020BB
:1001B0000648804706480047FEE7FEE7FEE7FEE701
:1001C000FEE7FEE7FEE7FEE7FEE7FEE7D1270008D1
:1001D000990100082DE9F05F0546002092469B46F4
:1001E00088460646814640241BE02846414647464D
:1001F000224600F041F853465A46C01A914110D3A6
:1002000011461846224600F028F82D1A67EB01081F
:100210004F4622460120002100F01FF817EB00098D
:100220004E41201EA4F10104DFDC484631462A4637
:100230004346BDE8F09FD2B201E000F8012B491E11
:10024000FBD270470022F6E710B513460A46044673
:100250001946FFF7F0FF204610BD202A04DB203AA4
:1002600000FA02F1002070479140C2F1200320FA09
:1002700003F3194390407047202A04DB203A21FA07
:1002800002F00021704721FA02F3D040C2F12002AF
:100290009140084319467047064C074D06E0E06858
:1002A00040F0010394E8070098471034AC42F6D3BD
:1002B000FFF776FFA8290008C8290008464910B5AD
:1002C0004A6822F440324A604A6843681A434A60E6
:1002D00001684A6822F480724A6001684A680369CA
:1002E00042EA03224A6001684A6822F040724A608A
:1002F00001684A6883681A434A6001688A6822F480
:1003000000628A6001688A68C3681A438A60816AE9
:100310006FF07062D14201688A6822F070628A6070
:1003200001688A680CD0836A1A438A6001688A6807
:1003300022F040528A6001688A68C36A1A4301E069
:1003400022F040528A6001688A6822F002028A60C4
:1003500001688A68037E42EA43028A6090F82010AE
:10036000002901684A680FD042F400624A600168BF
:100370004A6822F460424A6001684A68174C436A3E
:1003800004EB43331A4301E022F400624A6001683F
:10039000CA6A22F47002CA620168CA6A838B104C6E
:1003A00004EB03531A43CA6201688A6822F400729C
:1003B0008A6001688A6890F8303042EA43228A6095
:1003C00001688A6822F480628A6001688A684069EC
:1003D00042EA8020886010BD0023014000E0FFFF5A
:1003E0000000F0FFFEE7704772B6FEE778B5002424
:1003F000009490F83C20012A19D0012280F83C207A
:100400000A6807230568092A13D9EE680A3A02EB3D
:10041000420293409E43EE600B788A680A3B03EBEE
:1004200043039A400368DD682A43DA6010E0022043
:1004300078BD2E6902EB420293409E432E610B78F9
:100440008A6803EB43039A4003681D692A431A61D3
:100450004A681F23072A13D205686E6B521E02EBEF
:10046000820293409E436E630A8893B20A79521EB9
:1004700002EB820293400268556B2B43536327E0E3
:1004800005680D2A12D22E6BD21F02EB8202934016
:100490009E432E630B790A88DB1F92B203EB830322
:1004A0009A4003681D6B2A431A6311E0EE6A0D3A05
:1004B00002EB820293409E43EE620B790A880D3B69
:1004C00092B203EB83039A400368DD6A2A43DA623F
:1004D0001B4B0568194A9D420AD10D68122D07D1A0
:1004E000556825F400055560556845F4800555604C
:1004F00005689D421DD1134D0B68AB4201D0112BF5
:1005000017D1536823F480035360536843F4000306
:1005100053600968A9420CD10B490C4A0968B1FB28
:10052000F2F101EB8101490000E0491E0091002930
:10053000FBD180F83C40002078BD00000023014042
:1005400000200140120000101000002040420F0067
:1005500070B504004FF0000503D0206C002610B1E8
:1005600007E0012070BD204600F01CF8666484F8A6
:100570003C60206CC00610D4206C20F4885040F001
:10058000020020642046FFF799FE6664206C20F08C
:10059000020040F00100206400E0012584F83C6086
:1005A000284670BD10B586B0044614216846FFF792
:1005B00049FE1149206888421BD110480021026879
:1005C00042F480720260006800F4807005900B486D
:1005D0001438026842F001020260006800F0010075
:1005E000059003200090CDE901016946044800F020
:1005F0001FF806B010BD0000002001404438024042
:100600000000024090F83510022903D08021416596
:1006100001207047052180F835100068016821F03D
:10062000010101600020704790F83500704700001C
:100630002DE9F84F00224FF0010803254FF00F0E6F
:100640000B6808FA02F42340A34271D14E68012ED0
:1006500005D0022E03D0112E01D0122E15D186689E
:10066000570005FA07FC26EA0C06D1F80CC00CFA74
:1006700007FC4CEA060CC0F808C04668A6430C7993
:10068000C4F30014944034434460C668570005FA2C
:1006900007FC8C6826EA0C06BC403443C4604C68F6
:1006A000022C01D0122C13D1D40800EB8404A346F1
:1006B000D4F8209054074FEAD46A0EFA0AF629EAD1
:1006C00006090E6906FA0AF646EA0906CBF8206022
:1006D00004680E7924EA0C0406F00306BE402643A3
:1006E00006604C68E40056D52E4C266846F48046D9
:1006F0002660246822F0030604F4804400942A4C07
:100700003444A446D4F808489607370F0EFA07F683
:10071000B443264EB04201D1002615E0244EB0422B
:1007200001D1012610E0234EB04202D102260BE097
:1007300031E0214EB04201D1032605E01F4EB04208
:1007400001D1042600E00726BE402643CCF8086805
:100750001B4E34684F689C43FF0300D51C43346034
:10076000174E361D34684F689C43BF0300D51C43A9
:100770003460134E083634684F689C43FF0200D53E
:100780001C4334600E4E0C3634684F689C43BF02E5
:1007900000D51C433460521C102AFFF451AFBDE851
:1007A000F88F000044380240003001400000024051
:1007B0000004024000080240000C02400010024009
:1007C000003C01400AB1816170470904FBE7000069
:1007D000014880687047000004000020704770479F
:1007E0002DE9F041016804464A694E6890F83E00E0
:1007F0000025D743FA0506D4F243D20503D46FF49B
:10080000807201254A61B90508D4F143C90505D4B0
:1008100022686FF4007145F002055161790525D415
:10082000F143C90522D4638D94F83D10226B202832
:1008300008D13BB9212910D029290ED0282901D16E
:10084000212A0AD022686FF48061516145F00405C5
:10085000102806D0402804D008E0204601F01EFCF5
:1008600004E02068016841F400710160380508D493
:10087000F043C00505D421686FF4006045F0080519
:100880004861002D07D0206C284320642046BDE835
:10089000F04100F0E7BFBDE8F0812DE9F0410268CA
:1008A00000245168C76A90F83E5090F83D60102DC2
:1008B0001CD0402D1AD0036C002B7ED053694FF012
:1008C0002805DB439F0779D4CF43BF0576D4016C5D
:1008D00001B1946990F83D3000219D430B466ED0E4
:1008E000C91E516180F83C30BDE8F08194695369BC
:1008F0004FF42A0CDB435FEAC37E4FF02A4604D054
:100900006745F1D0B742EFD010E0CF43BF050DD41B
:10091000C16A614501D1012103E0C16AB14201D13F
:100920000821C162BDE8F04101F022BB1E0716D4C8
:10093000CE43B60513D4416CC9B21161416B11B9F4
:10094000826B002AD0D0C96B19B9816BC96B0029A1
:10095000CAD00068416841F400614160C4E79E0765
:1009600006D4CE43B60503D4BDE8F04101F074BA15
:10097000E443526864074FEA02521BD4002AB3DBF7
:100980001A0608D4CA43520505D45A0705D5BDE84E
:10099000F04101F005BA5A07A6D4C9438905A3D48A
:1009A000102D03D0BDE8F04101F028BBBDE8F041B7
:1009B00001F0BCB9002A97DB02E015E029E015E060
:1009C0005A0608D4CA43520505D45A0705D5BDE8CE
:1009D000F04101F073B85A0786D4C943890583D41E
:1009E000BDE8F04101F001B8946967E7556825F466
:1009F00080655560E243540700D50121120601D5F8
:100A0000828900E0028B80F83C3092B2FFF7E7FE6B
:100A10006AE7DC0606D4CC43A40503D4BDE8F04164
:100A200001F07EBB212E27D0292E25D05C0655D47F
:100A3000CC43640552D45B0752D590F83D10438DEA
:100A4000002B8BD01269436A1A70426A521C4262B0
:100A5000428D521E4285428D002AD9D12A29D7D1F2
:100A600001684A6822F480624A602221016380F8AA
:100A70003D5000F0DBFA37E71C0623D4CC43640575
:100A800020D45B0720D590F83D10438D002BBFD0BC
:100A9000436A1B781361426A521C4262428D521EA5
:100AA0004285428D002AB3D12929B1D101684A6813
:100AB00022F480624A602121016380F83D5000F0F9
:100AC000B6FA11E75B07A3D4C9438905A0D4418DC9
:100AD00000299DD0416A097811610AE05B0797D42B
:100AE000C943890594D4418D002991D01169426A86
:100AF0001170416A491C4162418D491E4185F3E6EE
:100B00007047000070B5040025D094F83D00002522
:100B100020B984F83C50204600F044FA242084F8A0
:100B20003D002068016821F0010101602068016832
:100B300041F4004101602068016821F40041016036
:100B400000F0ACFB4D4A6168914201D84C4900E08D
:100B50004C49884201D2012070BD4B492368B0FB4B
:100B6000F1F15E6826F03F060E435E6063689342D3
:100B700006D94FF4967359434FF47A73B1FBF3F1EE
:100B80002368491C1E6A26F03F06314319626168DA
:100B9000914210D84900401EB0FBF1F2521CC2F342
:100BA0000B02042A01D2042022E0B0FBF1F0401C29
:100BB000C0F30B001CE0A268F2B301EBC10303EB2E
:100BC0000116431EB3FBF6F35B1C43F480431B0585
:100BD00049D092B301EBC10202EB0111401EB0FB00
:100BE000F1F0401CC0F30B0040F4804040F40040A2
:100BF0002168CA694CF6FF739A431043C861D4E96F
:100C0000071001432068026822F0C002114301600E
:100C1000D4E9030101432068826848F2FF339A4314
:100C200011438160D4E9050108432168CA6822F0B4
:100C3000FF021043C86001E00EE016E02068016882
:100C400041F0010101602564202084F83D00256306
:100C500084F83E50002070BD01EB4106431EB3FBFB
:100C6000F6F35B1CB3E70120C2E701EB4101401E34
:100C7000B0FBF1F0401CC0F30B00B7E7A086010009
:100C800080841E0000093D0040420F0070477047FD
:100C9000704700002DE9F84F1F4690468A460446EB
:100CA000DDF82890FFF794FD054694F83D002028D4
:100CB00075D1192301226C492046009501F004FBEF
:100CC0000028F5D194F83C00012868D0012084F870
:100CD0003C0020680168C90703D1016841F00101A7
:100CE00001602068016821F400610160222084F81D
:100CF0003D00102084F83E0000262664C4F82480BD
:100D00006785608D20855948E0622B464A465146EA
:100D1000204600F047FF002878D1208D544F68B15D
:100D2000012814D002282068016816D041F480619F
:100D30000160206841698069009087E0206841690E
:100D400081690091016841F4007101607EE02068D2
:100D5000016821F480610160F0E721F480610160A5
:100D60002068016841F40061E2E7032848D80128BF
:100D70000AD0022814D04B4600223946204600955E
:100D800001F0A2FAD8BB27E02A464946204601F0E6
:100D90001AFBA0BB20680069616A08704DE061E041
:100DA0004B46002239462046009501F08DFA30BBB3
:100DB0002068016841F40071016020680069616A7F
:100DC0000870606A401C6062218D491E2185618D1A
:100DD000491E618521682EE02068016821F4806148
:100DE000016020680069616A0870606A401C606286
:100DF000208D401E2085608D401E6085D0E705E077
:100E00002A464946204601F0DEFA10B10120BDE82D
:100E1000F88F20680069616A0870606A401C60622F
:100E2000218D491E2185618D491E618521684A6990
:100E3000D24352070AD409690170606A401C60629B
:100E4000208D401E2085608D401E6085208D0028ED
:100E50008BD1202084F83D0084F83E6084F83C600B
:100E60000020D4E70220D2E7020010000000FFFFBC
:100E7000040001002DE9F84F1F4690468A460446BB
:100E8000DDF82890FFF7A4FC054694F83D002028E3
:100E90007FD11923012240492046009501F014FA20
:100EA000002876D194F83C00012872D0012084F803
:100EB0003C0020680168C90703D1016841F00101C5
:100EC00001602068016821F400610160212084F83C
:100ED0003D00102084F83E0000262664C4F82480DB
:100EE0006785608D20852D48E0622B464A46514635
:100EF000204600F0CDFE90B92068416980690090DD
:100F000036E02A464946204601F090FA50B1206C5E
:100F1000042804D12068016841F4007101600120B7
:100F2000BDE8F88F606A216800780861606A401C3B
:100F30006062618D491E6185218D491E89B22185BE
:100F400022685369DB435B070BD451B10078106111
:100F5000606A401C6062608D401E6085208D401E6E
:100F600020852A464946204601F088F90028CED13E
:100F7000208D0028C5D154F83D0B016841F4007163
:100F80000160202004F81E09E67766770020C7E795
:100F9000FFE70220C4E70000020010000000FFFF8E
:100FA0007047704710B586B0044614216846FFF7B5
:100FB00049F91B492068884230D11A48016841F03C
:100FC000020101600068694600F002000590C0203F
:100FD0000090122001900120029003200390042031
:100FE00004901148FFF724FB0E481030016841F4CB
:100FF000001101600068002200F400100590114605
:101000001F2000F07FF81F2000F06EF8002211462C
:10101000202000F077F8202000F066F806B010BD20
:1010200000540040303802400004024070477047CE
:1010300002488168027811448160704704000020F2
:101040000B4810B5016841F400710160016841F47A
:1010500080610160016841F480710160032000F04B
:1010600071F8002000F006F800F024F8002010BD10
:10107000003C024070B50D4D04464FF47A7128785B
:10108000B1FBF0F00A490968B1FBF0F000F004FB95
:1010900048B9102C07D200222146501E00F032F829
:1010A00000206C6070BD012070BD000004000020B5
:1010B000100000200B4882B0016841F480410160BB
:1010C000006800F4804000900648001F016841F06D
:1010D00080510160006800F080500090072002B04D
:1010E00000F030B844380240002809DB00F01F024D
:1010F000012191404009800000F1E020C0F800117A
:1011000070470000F0B40E4B1B680C46C3F302237B
:10111000C3F10705042D00D90425191D072901D2A3
:10112000002300E0DB1E012606FA05F1491E2140DE
:1011300099409E40761E16403143F0BC01F0EBBB57
:101140000CED00E0064900F0070208684FF6FF03C7
:10115000184040EA0220034A10430860704700002C
:101160000CED00E00000FA052DE9F0470E46050001
:1011700065D0DFF81481D8F80000F7B200F00F0056
:10118000B04207D288F80070D8F8000000F00F00D5
:10119000B04254D128683D4C810712D5400703D591
:1011A000206840F4E05020602878000703D52068CC
:1011B00040F4604020602068A96820F0F0000843F7
:1011C00020602878C0072DD0304968680839012888
:1011D00012D0022813D0032811D0096889070029EA
:1011E0002DDA216821F0030101432160FFF7F0FAB5
:1011F000814641F2883A0EE009688903EFE7096801
:101200008901ECE7FFF7E4FAA0EB0901514502D9A7
:101210000320BDE8F0872068696800F00C00B0EB9F
:10122000810FEFD1D8F80010404601F00F01B14214
:1012300007D90770006800F00F00B04201D001200C
:10124000E7E72878400705D52068E96820F4E050F2
:10125000084320602878000706D52068296920F413
:10126000604040EAC100206000F038F82168084A78
:10127000C1F30311515CC840064908600648006884
:10128000FFF7F8FE0020C4E7003C024008380240A7
:10129000902900081000002008000020044805499B
:1012A00000680968044AC1F38221515CC840704754
:1012B0001000002008380240A02900080448054911
:1012C00000680968044AC1F34231515CC840704764
:1012D0001000002008380240A0290008154810B569
:1012E000006810F00C02144813D04110042A0FD0EB
:1012F000082A0ED10F4C241F2268236802F03F02F7
:101300005B0207D52068C0F38810A0FB010106E04E
:10131000084610BD2168C1F38811A1FB000100231C
:10132000FEF758FF2168C1F30141491C4900B0FB99
:10133000F1F010BD083802400024F4002DE9F84F08
:1013400004006ED02078DFF83C93C007A9F10405B3
:101350004AD009F104000168C1F38101012908D0D4
:101360000068C0F3810002280AD1D9F800004002C9
:1013700006D52868800337D560680028E1D033E0BF
:101380006068B0F5803F10D0B0F5A02F286810D06D
:1013900020F480302860286820F48020286060686D
:1013A000A8B1FFF715FA06460DE0286840F4803032
:1013B000F4E740F480202860F7E700BFFFF708FA61
:1013C000801B642873D828688003F7D50CE0FFF7EA
:1013D000FFF9064605E000BFFFF7FAF9801B642815
:1013E000F0D828688003F7D42078DFF89C82800743
:1013F0004FF0000A3ED5A348001D016811F00C0F04
:1014000008D00068C0F3810002280BD1D9F8000091
:10141000400207D42868800716D5E068012800D16B
:1014200012E02BE1E068B8B10120C8F80000FFF736
:10143000CFF9064605E000BFFFF7CAF9801B022876
:10144000C0D828688007F7D52868216920F0F800FF
:1014500040EAC10028600DE0C8F800A0FFF7B8F925
:10146000064604E0FFF7B4F9801B02281FD828685D
:101470008007F7D42078000722D5824E834861691F
:10148000703671B101210160FFF7A2F9074604E04F
:10149000FFF79EF9C01B022809D830688007F7D5EE
:1014A0000EE0C0F800A0FFF793F9074605E082E0E0
:1014B000FFF78EF9C01B02287DD830688007F7D46B
:1014C0002078400768D5DFF8BCB100270BF13C0B52
:1014D000DBF80000C0000BD4DBF8001041F08051B5
:1014E000CBF80010DBF80000012700F080500090DE
:1014F000674E3068C00510D4306840F480703060AA
:10150000FFF766F9009005E0FFF762F90099401ACD
:10151000022850D83068C005F6D55A4EA0686C36FF
:1015200001280FD00528306810D020F0010030606D
:10153000306820F004003060A068B8B1FFF748F9C7
:1015400000900FE0306840F00100F4E740F0040044
:101550003060F7E7FFF73CF90099411A41F2883013
:10156000814266D830688007F4D50EE0FFF730F985
:10157000009007E0FFF72CF90099411A41F28830FA
:10158000814256D830688007F4D42FB1DBF80010C0
:1015900021F08051CBF80010A069C8B33949091D6A
:1015A0000968C1F3810102294AD00228504607D0B8
:1015B000C8F8600000E03CE0FFF70AF904463BE0B1
:1015C0004746C8F86000FFF703F9064605E000BF8C
:1015D000FFF7FEF8801B02282BD828688001F7D47B
:1015E000D4E907010843A16A2A4A490802EB0141EC
:1015F000626A41EA8211084394F82C1040EA0161C2
:10160000C9F8001001203866FFF7E2F8044606E04A
:1016100036E000BFFFF7DCF8001B022809D8286875
:101620008001F7D52CE000BFFFF7D2F8001B02289D
:1016300002D90320BDE8F88F28688001F4D41FE0A8
:101640000128F7D0D9F80000E26900F48001914246
:1016500014D1226A00F03F0191420FD147F6C071C8
:10166000626A0140914209D1A26A00F4403191427C
:1016700004D1E16A00F07060884201D00120D9E70E
:101680000020D7E70438024000004742800E47425E
:10169000007000400000FFFF10B5401EB0F1807FD9
:1016A00001D3012010BD4FF0E02460610F216017CD
:1016B00001F031F90020A06107202061002010BD59
:1016C00070B5040004D094F83900002510B106E08C
:1016D000012070BD84F83850204600F023F8242003
:1016E00084F839002068C16821F40051C1602046A7
:1016F00001F07CF82068016921F4904101612068C3
:10170000416921F02A0141612068C16841F400511A
:10171000C160E563202084F8390084F83A00002095
:1017200070BD000010B586B0044614216846FEF76F
:1017300089FD13492068884220D11248002102689F
:1017400042F400320260006800F4003005900D4859
:101750001038026842F001020260006800F00100E7
:1017600005900C2000900220CDE901010320039098
:101770000720049069460448FEF75AFF06B010BDE2
:10178000004400404038024000000240FEE70000F4
:101790000148FFF725B800005C0000200148FFF772
:1017A0007CB800005C00002038B5806B002190F808
:1017B0003D202B4B46F2A8141B68B3FBF4F3C3EB9C
:1017C000C30303EB830300933BB15B1E00930368E9
:1017D0001B689B0505D5009BF6E7036C43F02003CF
:1017E0000364436B03B1D963836B03B1D9630368AB
:1017F0001C6824F480641C604185436B03B1196547
:10180000836B03B1196503681C6824F001041C6034
:1018100090F83D402023602C0BD0282434EA0202AB
:101820000FD080F83D3080F83E1000BFFFF768F918
:1018300038BD80F83D3080F83E100164FEF7CEFFE1
:1018400038BD0268136843F001031360026813682F
:1018500043F480631360016380F83D40E6E70000D5
:101860001000002070B5044690F83D0094F83E103A
:10187000102901D0402906D1222804D121680A6804
:1018800022F400620A60282131EA00024FF00005CC
:101890004FF0200626D021684968090505D4602844
:1018A00003D084F83D6084F83E5025632068416889
:1018B000090537D5416821F400614160606B90F8FB
:1018C00035203C49012A11D00165606BFEF79AFE74
:1018D00038B32068016821F00101016084F83D609F
:1018E000606B1CE0256384F83D10DFE7A06B0165A9
:1018F000A06BFEF787FEA0B120684169C943490685
:1019000005D40069616A0870606A401C60622068E2
:10191000016821F00101016084F83D60A06B016D58
:10192000884710E094F83D10602910D04169C94300
:10193000490605D40069616A0870606A401C6062EB
:101940002046FFF7DDF8206CC1071CD115E084F8B4
:101950003D6025644169C943490605D40069616A4F
:101960000870606A401C60622068016821F0010113
:1019700001602046FEF732FFE5E7810703D4410707
:1019800001D4000704D52068416821F4E06141607A
:1019900094F83D00216C49070BD5282809D1064849
:1019A000E062256384F83D6084F83E502046FFF7EE
:1019B0006DF970BDA91700080000FFFF01684A69B2
:1019C000D24352050FD46FF480624A61002140F87F
:1019D000301F202242738173026942F004020261C7
:1019E0000173012070470020704710B5C26A438D13
:1019F0000168042B06D0438D032B08D0438D022BA6
:101A00001DD012E04A6822F480624A600CE04B6804
:101A100023F480634B60042A06D0022A04D00168B4
:101A20000A6822F480620A6001680969426A1170DA
:101A3000416A491C4162418D491E418510BD012A00
:101A400030D0102A2ED0042A30D0022A2ED00A6894
:101A500042F400720A6001680969426A1170416AC1
:101A6000491C4162428D521E4285026812690A7009
:101A7000416A491C4162418D491E418501684A689D
:101A800022F440724A60202180F83D1090F83E20F8
:101A90000021402A80F83E100CD012210163FFF78C
:101AA000F6F810BD0A6822F48062D3E70A6842F4AF
:101AB0008062CFE70163FFF773FA10BD38B590F885
:101AC0003D10222914D1418D032912D901680969D9
:101AD000426A1170416A491C4162418D491E41852B
:101AE000418D032904D10068416821F4806141607F
:101AF00038BDC26A022AFBD0012901D00029F7D1E2
:101B0000274946F2A81300220968B1FBF3F101EB63
:101B10008101009101682023009C641E009422D062
:101B20000C68A405F8D40C6824F480640C60016887
:101B30004C6824F4E0644C6001680969446A2170CF
:101B4000416A491C4162418D491E418580F83D3002
:101B500090F83E1080F83E2040291DD012210163EC
:101B6000FFF795F838BD046C44F0200404644C6819
:101B700024F4E0644C6001680969446A2170416A98
:101B8000491C4162418D491E418580F83D3080F8F5
:101B90003E20FEF7B5FF38BD0263FFF701FA38BDFE
:101BA000100000202DE9F84F0446C06A1E469346F7
:101BB0000D4621680A6842F480620A60082807D04E
:101BC000012805D010F5803F02D0206B112804D1E8
:101BD0002068016841F4807101604FF001195B4693
:101BE000002249462046009600F06EFB4FF4007834
:101BF00040B120680068C00501D5C4F840800320CA
:101C0000BDE8F88F2069DFF884A0B0F5804F0FD0D1
:101C10000620216800EAD51747F0F0000861334636
:101C20005A460AF10601204600F082FB58BB03E049
:101C3000E8B240F001001CE02168E8B208613346D8
:101C40005A465146204600F073FBE0B920684169CE
:101C500081690091016841F4807101605B46002256
:101C600049462046009600F02FFB0028C1D147F0DE
:101C7000F1002168086133465A465146204600F07B
:101C800057FB0028BCD00120BAE700000200010089
:101C9000F8B50446C06A1E460D461746082807D008
:101CA000012805D010F5803F02D0206B122804D106
:101CB0002068016841F480710160134600224FF0F2
:101CC00001112046009600F0FFFA40B1206800683C
:101CD000C00502D54FF4007020640320F8BD2069D0
:101CE000B0F5804F0ED00620216800EAD51040F0F4
:101CF000F000086133463A460B49204600F018FBD5
:101D000078B902E005F0FE0000E0E8B22168086161
:101D1000054933463A46891F204600F009FB002852
:101D2000DCD00120F8BD00000800010010B5C16A38
:101D300090F83D20212A0BD1428D52B1416A0268B0
:101D400009781161416A491C4162418D491E4185F2
:101D500010BD00222023082910D020290ED011F513
:101D6000803F0BD001684C6824F4E0644C60112182
:101D7000016380F83E2080F83D300EE001684C6839
:101D800024F4E0644C6001680C6844F400740C6056
:101D9000026380F83D3080F83E20FEF779FF10BDE9
:101DA00010B590F83D1090F83E30C26A048DB4B181
:101DB000212903D0402B11D122290FD1418DE1B32C
:101DC00090F83E10402942D0416A026809781161BA
:101DD000416A491C4162418D491E418510BD21293E
:101DE000E8D120230021082A13D0202A11D012F58F
:101DF000803F0ED00268546824F4E06454601122DD
:101E0000026380F83E1080F83D3000BFFEF740FFCF
:101E100010BD0268546824F4E064546002681468D9
:101E200044F400741460016380F83D3090F83E2063
:101E300080F83E10402AE9D100E002E0FFF7B1F857
:101E400010BD0068416821F48061416010BDBDE8AB
:101E5000104000F0D3B8000078B590F83E50C26A48
:101E6000036B90F83D6000240168222E7AD1066D44
:101E70000EB9402D76D0056D1DB90569B5F5404FF9
:101E800009D0458D05B3468D384D012E0ED0438DBA
:101E9000022B3AD05DE04A698A6900920A6842F4EE
:101EA00080720A60016D491C016578BDAA4213D198
:101EB0000A6822F480620A6001684A68120503D544
:101EC0000A6822F4806216E04A698A6900920A6808
:101ED00042F400720A6039E0082A10D0202A0ED09D
:101EE000122B0AD0042A03D0022A01D0102AE7D1EB
:101EF0000A6842F480620A6024E0012AE0D00A689D
:101F000022F480620A600168DEE7042A21D0022AF6
:101F10001FD0102A1DD00B6823F480630B6001686A
:101F20000B6843F400630B6001684B681B0509D51F
:101F3000AA4212D0012A10D0082A0ED0102A0CD0A2
:101F4000202A0AD001684A6989690091046578BD30
:101F500008E00B6843F48063E5E74A6842F4805286
:101F60004A60EFE7486988690090F0E70000FFFFEA
:101F700090F83E10402910D00169B1F5804F19D07A
:101F8000016DA9B3016D012910D1416C5FF0F1021F
:101F900001F4407142EAD11106E0016D0029416C63
:101FA00005D0C9B241F0010100680161704701F03C
:101FB000FE01F9E790F83D102129416C09D0C9B222
:101FC00041F0010102681161416B29B1C96B49B946
:101FD00002E001F0FE01F5E7816B0029E6D0C96B54
:101FE0000029E3D00068416841F400614160704716
:101FF000FFE7416CF02201F44071CBE710B590F897
:102000003D10026D22B3026D012A2FD0026D022A0B
:102010001DD1222931D0428D0AB1212933D0428DE0
:10202000002A14D1212912D101684A6822F4E06201
:102030004A6001680A6842F400720A600021016384
:10204000202280F83D2080F83E10FEF7AAFF10BD48
:10205000C16C0129816C02D0C1F3072108E002683C
:10206000C9B21161016D891C016510BD816CC9B2D5
:1020700002681161016D491CF6E70068016841F4CE
:102080008071016010BD416A026809781161416A7E
:10209000491C4162418D491E418510BD2DE9F04129
:1020A00090F83D40C26A002320261C4F01686FF45F
:1020B0008065082A01D0202A01D1282C04D0212CA7
:1020C00016D04D61BDE8F081C7624A6822F4E06233
:1020D0004A6001684D6101680A6822F480620A6002
:1020E000036380F83D6080F83E30FEF7CFFDE9E7FE
:1020F000C7622122026380F83D6080F83E304A6862
:1021000022F4E0624A6001684D6101680A6822F4C5
:1021100080620A60FEF78BFFD4E700000000FFFF3B
:10212000F8B590F83D6004460068416821F4E0612C
:1021300041602068002541690091016841F001017A
:1021400001602068016821F48061016020684168B5
:10215000090520D5474F222E48D02A2E46D0616B44
:10216000096849686185618D19B1216C41F00401EC
:102170002164416821F400614160606BFEF754FA0C
:10218000012808D0606B0765606BFEF73BFA10B161
:10219000606B016D8847608D08B320684169C94351
:1021A000490708D40069616A0870606A401C60626F
:1021B000608D401E608520684169C943490608D486
:1021C0000069616A0870606A401C6062608D401E30
:1021D0006085608D18B1206C40F004002064206C94
:1021E00000B32046BDE8F840FFF73CBBA16B09688F
:1021F00049686185618D19B1216C41F00401216448
:10220000416821F400614160A06BFEF70DFA0128DE
:10221000C1D0A06B0765A06BFEF7F4F90028BAD017
:10222000A06BB6E72A2E06D12563282084F83D004E
:102230002046FEF7FBFE94F83D10202028290DD003
:10224000216B222901D0222E07D1256384F83D007D
:1022500084F83E502046FEF7E9FEF8BD0649E162EB
:10226000256384F83D0084F83E502046FEF70EFDBD
:10227000F8BD0000A91700080000FFFF70B5164662
:102280000D4604460DE02046FFF798FB08B10120FB
:1022900070BD681C05D0FEF79BFA801BA84207D8CA
:1022A00035B120684069C0434007ECD4002070BDC0
:1022B000002044F8300F20216173A073216941F0A0
:1022C000200121612073E2E72DE9F0471E46904688
:1022D0000D460446C1F30747DDF8209008E0701C66
:1022E00006D0FEF775FAA0EB0900B0420FD876B120
:1022F0002068012F18D0806925EA00000004000C36
:1023000014D000214145EAD00020BDE8F08700202C
:1023100044F8300F20216173A073216941F020013E
:10232000216120730120F0E74069E5E70121E9E739
:102330002DE9F0479A4691460E46044600254FF097
:102340002008C1F3074725E020684069C0434005E5
:1023500014D42068016841F40071016021686FF4B1
:1023600080604861256384F83D8084F83E50206C8D
:1023700040F00400206484F83C501FE0B9F1FF3FB6
:1023800008D0FEF725FAA0EB0A0149450CD8B9F1AF
:10239000000F09D02068012F13D0806926EA0000C1
:1023A0000004000C0BD0CFE744F8305F84F80D80B8
:1023B000A573206940F02000206125730120BDE84D
:1023C000F0874069EAE72DE9F041002590460E4686
:1023D0000446202717E04069C043C0060CD454F8D7
:1023E000301B6FF01000486144F810596777A577EB
:1023F000206A2062257717E0FEF7EAF9A0EB0800D3
:10240000B04208D83EB120684169C9434906E2D4C8
:102410000020BDE8F08144F8305F6773A573206940
:1024200040F02000206125730120F2E770B51646C8
:102430000D4604460DE02046FFF7C0FA08B1012022
:1024400070BD681C05D0FEF7C3F9801BA84207D8F1
:1024500035B120684069C0430006ECD4002070BD4F
:10246000002044F8300F20216173A073216941F0EE
:10247000200121612073E2E77FB500241548009414
:10248000019402941249039401604FF48031C0E931
:1024900001140461047680F820400F49C0E90A1451
:1024A0000125C561C46080F830404561FEF750F8F1
:1024B00008B1FDF799FFCDE900456946054802944A
:1024C000FDF794FF002801D0FDF78EFF7FBD0000CF
:1024D00000200140140000200100000F30B587B03B
:1024E00014216846FDF7AEFE1E480024016841F045
:1024F00004010160016801F004010591016841F0E7
:1025000080010160016801F080010591016841F0DE
:1025100001010160016801F001010591016841F0CC
:10252000020101600068104D00F0020005900022D9
:1025300020212846FEF746F94FF4005000900B4842
:10254000CDE9010469460A48FEF772F820200090A0
:102550000120CDE90104694628460394FEF768F896
:1025600007B030BD303802400000024000002110AA
:10257000000802400D4810B50B4901600C4941604C
:1025800000214FF480428160C0E903124161816102
:10259000C16180210162FEF7B5FA002803D0BDE8D1
:1025A0001040FDF721BF10BD005400405C0000202A
:1025B000A08601000C4810B50A4901604FF4E131D2
:1025C0004160002181600C22C160C0E90412816178
:1025D000C161FFF775F8002803D0BDE81040FDF792
:1025E00003BF10BD00440040B0000020FEE7FEE73E
:1025F0007047FF2110B581EA1021082240F2311303
:102600000C0602D583EA410100E04900521EC9B21E
:1026100012F0FF02F4D1C0B248400821020602D5F0
:1026200083EA400000E04000491EC0B211F0FF0103
:10263000F4D110BD10B50C46FFF7DBFFA04201D06E
:10264000052010BD002010BD2DE9F04192B00646D6
:10265000D0208DF8440033200F468DF84500962594
:10266000022311AAC22130460095FEF703FC01287F
:1026700037D0032837D0002001463A18401C82F892
:102680002A101828F9D3002001AC2154401C4028FE
:10269000FBD321232246C22130460095FEF7FAFAE9
:1026A00001281ED003281ED0002635464FEA040814
:1026B00008EB050001884CBAA91B3944220A01F82D
:1026C0002A2F4C7081782046FFF7B4FF761C05282E
:1026D0000BD014B1ED1C212DEADB002012B0BDE8B7
:1026E000F0810320FAE70420F8E70620F6E73EB57C
:1026F0000546002002908DF80510080A8DF80400A8
:102700009624022301AAC22128460094FEF7B2FBB8
:1027100010B14FF6FF703EBD022302AAC221284627
:102720000094FEF7B7FABDF808003EBD014901600C
:1027300000207047F00000207047FEF779BC0000D1
:1027400030B593B030216846FDF77CFD14210CA80C
:10275000FDF778FD1C480024016841F080510160BC
:10276000006800F0805011901848016841F4404121
:1027700001600068022500F44040119001200390A0
:102780001020009506950490CDE907404FF4A870FD
:10279000099004200A900B906846FEF7CFFD08B11F
:1027A00072B6FEE70F20CDE90C054FF48050CDE95D
:1027B0000E4002210CA81094FEF7D6FC002801D090
:1027C00072B6FEE713B030BD4038024000700040E2
:1027D0000548016841F47001016003494FF0006051
:1027E000803908607047000088ED00E02DE9F04175
:1027F000044600680169E26821F440511143016117
:102800002169A068E26908436169114308432168AE
:10281000CA6849F20C639A430243CA60206841695E
:10282000A26921F4407111434161E06919276425CF
:102830003226B0F5004F354A354920684FF0000880
:1028400006D0884201D0904236D1FEF737FD35E000
:10285000884201D0904202D1FEF730FD01E0FEF740
:102860001DFD61684A18A0FB070148EB0803FDF74E
:10287000B1FC0146B0FBF5F00201B1FBF5F06FF0E1
:102880001803584301EB800006EBC000B0FBF5F0E5
:1028900000F0F80002EB4002B1FBF5F0584301EB09
:1028A000800006EBC000B0FBF5F000F007002168E7
:1028B00010448860BDE8F081FEF7F0FC61688B0F82
:1028C0008A00A0FB0701FDF785FC0146B0FBF5F08F
:1028D0006FF01802504301EB800006EB0010B0FBD4
:1028E000F5F000F0F002B1FBF5F002EB0012B1FBE5
:1028F000F5F06FF01803584301EB800006EB001071
:10290000B0FBF5F000F00F00D1E70000001401402B
:1029100000100140FEE70907090E002804DB00F162
:10292000E02080F80014704700F00F0000F1E02074
:1029300080F8141D704702E008C8121F08C1002A61
:10294000FAD170477047002001E001C1121F002A30
:10295000FBD17047FEF774FBFFF7F2FEFFF7BEFDF9
:10296000FFF78AFDFFF706FEFFF724FE0648FFF794
:10297000DDFE4FF451410548FFF7B9FE02480168FA
:102980000248FFF761FEFEE7000000205C00002027
:10299000000000000000000001020304060708090F
:1029A0000000000001020304C82900080000002004
:1029B0001400000036290008DC290008140000205B
:1029C0002405000046290008000000000100000066
:0C29D00010000000000000000024F400D3
:040000050800019955
:00000001FF
